{
  "contractName": "Helper",
  "abi": [
    {
      "inputs": [
        {
          "internalType": "bytes",
          "name": "input",
          "type": "bytes"
        }
      ],
      "name": "decode",
      "outputs": [
        {
          "internalType": "bytes[]",
          "name": "",
          "type": "bytes[]"
        }
      ],
      "stateMutability": "pure",
      "type": "function",
      "constant": true
    }
  ],
  "bytecode": "0x608060405234801561001057600080fd5b5061062d806100206000396000f3fe608060405234801561001057600080fd5b506004361061002b5760003560e01c8063e5c5e9a314610030575b600080fd5b61004a60048036038101906100459190610171565b610060565b6040516100579190610319565b60405180910390f35b606073__RLPDecoder____________________________63e5c5e9a384846040518363ffffffff1660e01b815260040161009b929190610388565b60006040518083038186803b1580156100b357600080fd5b505af41580156100c7573d6000803e3d6000fd5b505050506040513d6000823e3d601f19601f820116820180604052508101906100f091906105ae565b905092915050565b6000604051905090565b600080fd5b600080fd5b600080fd5b600080fd5b600080fd5b60008083601f8401126101315761013061010c565b5b8235905067ffffffffffffffff81111561014e5761014d610111565b5b60208301915083600182028301111561016a57610169610116565b5b9250929050565b6000806020838503121561018857610187610102565b5b600083013567ffffffffffffffff8111156101a6576101a5610107565b5b6101b28582860161011b565b92509250509250929050565b600081519050919050565b600082825260208201905092915050565b6000819050602082019050919050565b600081519050919050565b600082825260208201905092915050565b60005b83811015610224578082015181840152602081019050610209565b83811115610233576000848401525b50505050565b6000601f19601f8301169050919050565b6000610255826101ea565b61025f81856101f5565b935061026f818560208601610206565b61027881610239565b840191505092915050565b600061028f838361024a565b905092915050565b6000602082019050919050565b60006102af826101be565b6102b981856101c9565b9350836020820285016102cb856101da565b8060005b8581101561030757848403895281516102e88582610283565b94506102f383610297565b925060208a019950506001810190506102cf565b50829750879550505050505092915050565b6000602082019050818103600083015261033381846102a4565b905092915050565b600082825260208201905092915050565b82818337600083830152505050565b6000610367838561033b565b935061037483858461034c565b61037d83610239565b840190509392505050565b600060208201905081810360008301526103a381848661035b565b90509392505050565b7f4e487b7100000000000000000000000000000000000000000000000000000000600052604160045260246000fd5b6103e482610239565b810181811067ffffffffffffffff82111715610403576104026103ac565b5b80604052505050565b60006104166100f8565b905061042282826103db565b919050565b600067ffffffffffffffff821115610442576104416103ac565b5b602082029050602081019050919050565b600080fd5b600067ffffffffffffffff821115610473576104726103ac565b5b61047c82610239565b9050602081019050919050565b600061049c61049784610458565b61040c565b9050828152602081018484840111156104b8576104b7610453565b5b6104c3848285610206565b509392505050565b600082601f8301126104e0576104df61010c565b5b81516104f0848260208601610489565b91505092915050565b600061050c61050784610427565b61040c565b9050808382526020820190506020840283018581111561052f5761052e610116565b5b835b8181101561057657805167ffffffffffffffff8111156105545761055361010c565b5b80860161056189826104cb565b85526020850194505050602081019050610531565b5050509392505050565b600082601f8301126105955761059461010c565b5b81516105a58482602086016104f9565b91505092915050565b6000602082840312156105c4576105c3610102565b5b600082015167ffffffffffffffff8111156105e2576105e1610107565b5b6105ee84828501610580565b9150509291505056fea2646970667358221220d3d91682eea13b8c4bd3bfd5cb235897046766e3b3946dbbb832471e24001aa164736f6c63430008090033",
  "immutableReferences": {},
  "source": "// SPDX-License-Identifier: MIT\npragma solidity >=0.4.22 <0.9.0;\nimport \"./RLPDecoder.sol\";\n\ncontract Helper {\n\n    function decode(bytes calldata input) public pure returns (bytes[] memory) {\n        return RLPDecoder.decode(input);\n    }\n}\n",
  "sourcePath": "/Users/yukitanaka/Documents/dev/solidity/solidity-rlp-decoder/contracts/Helper.sol",
  "compiler": {
    "name": "solc",
    "version": "0.8.9+commit.e5eed63a.Emscripten.clang"
  },
  "schemaVersion": "3.4.3",
  "updatedAt": "2021-11-02T13:37:36.444Z",
  "networkType": "ethereum",
  "devdoc": {
    "kind": "dev",
    "methods": {},
    "version": 1
  },
  "userdoc": {
    "kind": "user",
    "methods": {},
    "version": 1
  }
}