{
  "contractName": "RLPDecoder",
  "abi": [
    {
      "inputs": [
        {
          "internalType": "bytes",
          "name": "input",
          "type": "bytes"
        }
      ],
      "name": "test",
      "outputs": [
        {
          "internalType": "uint256",
          "name": "",
          "type": "uint256"
        }
      ],
      "stateMutability": "pure",
      "type": "function"
    },
    {
      "inputs": [
        {
          "internalType": "bytes",
          "name": "input",
          "type": "bytes"
        }
      ],
      "name": "decode",
      "outputs": [
        {
          "internalType": "bytes[]",
          "name": "",
          "type": "bytes[]"
        }
      ],
      "stateMutability": "pure",
      "type": "function"
    }
  ],
  "bytecode": "0x611148610053600b82828239805160001a607314610046577f4e487b7100000000000000000000000000000000000000000000000000000000600052600060045260246000fd5b30600052607381538281f3fe73000000000000000000000000000000000000000030146080604052600436106100405760003560e01c80632f570a2314610045578063e5c5e9a314610075575b600080fd5b61005f600480360381019061005a9190610c1e565b6100a5565b60405161006c9190610c84565b60405180910390f35b61008f600480360381019061008a9190610c1e565b61010c565b60405161009c9190610dfa565b60405180910390f35b600080838360008181106100bc576100bb610e1c565b5b9050013560f81c60f81b905060007fb60000000000000000000000000000000000000000000000000000000000000060f81c8260f81c6100fc9190610e87565b60ff169050809250505092915050565b606060008383600081811061012457610123610e1c565b5b9050013560f81c60f81b90507fbf00000000000000000000000000000000000000000000000000000000000000817effffffffffffffffffffffffffffffffffffffffffffffffffffffffffffff1916111561018c57610184848461025b565b915050610255565b6000600167ffffffffffffffff8111156101a9576101a8610ebb565b5b6040519080825280602002602001820160405280156101dc57816020015b60608152602001906001900390816101c75790505b50905061022c85858080601f016020809104026020016040519081016040528093929190818152602001838380828437600081840152601f19601f8201169050808301925050505050505061068d565b600001518160008151811061024457610243610e1c565b5b602002602001018190525080925050505b92915050565b606060008383600081811061027357610272610e1c565b5b9050013560f81c60f81b9050606060007ff700000000000000000000000000000000000000000000000000000000000000837effffffffffffffffffffffffffffffffffffffffffffffffffffffffffffff191611610365577fbf0000000000000000000000000000000000000000000000000000000000000060f81c8360f81c6102fe9190610e87565b60ff16905061035e86868080601f016020809104026020016040519081016040528093929190818152602001838380828437600081840152601f19601f82011690508083019250505050505050600180846103599190610eea565b6109f9565b9150610479565b60007ff60000000000000000000000000000000000000000000000000000000000000060f81c8460f81c6103999190610e87565b60ff1690506103f86103f188888080601f016020809104026020016040519081016040528093929190818152602001838380828437600081840152601f19601f820116905080830192505050505050506001846109f9565b6000610b17565b9150600082826104089190610f1e565b905061046588888080601f016020809104026020016040519081016040528093929190818152602001838380828437600081840152601f19601f82011690508083019250505050505050836001846104609190610eea565b6109f9565b935060008451141561047657600080fd5b50505b600060606000610487610b95565b5b6000865111156105d25782518214156105645760008390506014856104ad9190610f1e565b94508467ffffffffffffffff8111156104c9576104c8610ebb565b5b6040519080825280602002602001820160405280156104fc57816020015b60608152602001906001900390816104e75790505b50935060008151146105625760005b81518110156105605781818151811061052757610526610e1c565b5b602002602001015185828151811061054257610541610e1c565b5b6020026020010181905250808061055890610f74565b91505061050b565b505b505b61056d8661068d565b905061059a868260200151600184602001518a5161058b9190610eea565b6105959190610eea565b6109f9565b955080600001518383815181106105b4576105b3610e1c565b5b602002602001018190525081806105ca90610f74565b925050610488565b60008267ffffffffffffffff8111156105ee576105ed610ebb565b5b60405190808252806020026020018201604052801561062157816020015b606081526020019060019003908161060c5790505b50905060005b8381101561067b5784818151811061064257610641610e1c565b5b602002602001015182828151811061065d5761065c610e1c565b5b6020026020010181905250808061067390610f74565b915050610627565b50809850505050505050505092915050565b610695610b95565b6000826000815181106106ab576106aa610e1c565b5b602001015160f81c60f81b90507f7f00000000000000000000000000000000000000000000000000000000000000817effffffffffffffffffffffffffffffffffffffffffffffffffffffffffffff19161161072b57604051806040016040528061071985600060016109f9565b815260200160018152509150506109f4565b7fb700000000000000000000000000000000000000000000000000000000000000817effffffffffffffffffffffffffffffffffffffffffffffffffffffffffffff1916116108d95760007f7f0000000000000000000000000000000000000000000000000000000000000060f81c8260f81c6107a89190610e87565b60ff16905060607f8000000000000000000000000000000000000000000000000000000000000000837effffffffffffffffffffffffffffffffffffffffffffffffffffffffffffff1916141561082857604051806020016040528060008152509050604051806040016040528082815260200160018152509350610859565b61083f856001808561083a9190610eea565b6109f9565b905060405180604001604052808281526020018381525093505b6002821415806108c857507f80000000000000000000000000000000000000000000000000000000000000008160008151811061089957610898610e1c565b5b602001015160f81c60f81b7effffffffffffffffffffffffffffffffffffffffffffffffffffffffffffff1916115b6108d157600080fd5b5050506109f4565b7fbf00000000000000000000000000000000000000000000000000000000000000817effffffffffffffffffffffffffffffffffffffffffffffffffffffffffffff1916116109f25760007fb60000000000000000000000000000000000000000000000000000000000000060f81c8260f81c6109569190610e87565b60ff169050806001855161096a9190610eea565b1161097457600080fd5b6000610997610990866001808661098b9190610eea565b6109f9565b6000610b17565b9050603781116109a657600080fd5b60405180604001604052806109d38785600187876109c49190610f1e565b6109ce9190610eea565b6109f9565b81526020016002836109e59190610f1e565b81525093505050506109f4565b505b919050565b606081601f83610a099190610f1e565b1015610a4a576040517f08c379a0000000000000000000000000000000000000000000000000000000008152600401610a419061101a565b60405180910390fd5b8183610a569190610f1e565b84511015610a99576040517f08c379a0000000000000000000000000000000000000000000000000000000008152600401610a9090611086565b60405180910390fd5b6060821560008114610aba5760405191506000825260208201604052610b0b565b6040519150601f8416801560200281840101858101878315602002848b0101015b81831015610af85780518352602083019250602081019050610adb565b50868552601f19601f8301166040525050505b50809150509392505050565b6000610b238383610b2e565b60ff16905092915050565b6000600182610b3d9190610f1e565b83511015610b80576040517f08c379a0000000000000000000000000000000000000000000000000000000008152600401610b77906110f2565b60405180910390fd5b60008260018501015190508091505092915050565b604051806040016040528060608152602001600081525090565b600080fd5b600080fd5b600080fd5b600080fd5b600080fd5b60008083601f840112610bde57610bdd610bb9565b5b8235905067ffffffffffffffff811115610bfb57610bfa610bbe565b5b602083019150836001820283011115610c1757610c16610bc3565b5b9250929050565b60008060208385031215610c3557610c34610baf565b5b600083013567ffffffffffffffff811115610c5357610c52610bb4565b5b610c5f85828601610bc8565b92509250509250929050565b6000819050919050565b610c7e81610c6b565b82525050565b6000602082019050610c996000830184610c75565b92915050565b600081519050919050565b600082825260208201905092915050565b6000819050602082019050919050565b600081519050919050565b600082825260208201905092915050565b60005b83811015610d05578082015181840152602081019050610cea565b83811115610d14576000848401525b50505050565b6000601f19601f8301169050919050565b6000610d3682610ccb565b610d408185610cd6565b9350610d50818560208601610ce7565b610d5981610d1a565b840191505092915050565b6000610d708383610d2b565b905092915050565b6000602082019050919050565b6000610d9082610c9f565b610d9a8185610caa565b935083602082028501610dac85610cbb565b8060005b85811015610de85784840389528151610dc98582610d64565b9450610dd483610d78565b925060208a01995050600181019050610db0565b50829750879550505050505092915050565b60006020820190508181036000830152610e148184610d85565b905092915050565b7f4e487b7100000000000000000000000000000000000000000000000000000000600052603260045260246000fd5b600060ff82169050919050565b7f4e487b7100000000000000000000000000000000000000000000000000000000600052601160045260246000fd5b6000610e9282610e4b565b9150610e9d83610e4b565b925082821015610eb057610eaf610e58565b5b828203905092915050565b7f4e487b7100000000000000000000000000000000000000000000000000000000600052604160045260246000fd5b6000610ef582610c6b565b9150610f0083610c6b565b925082821015610f1357610f12610e58565b5b828203905092915050565b6000610f2982610c6b565b9150610f3483610c6b565b9250827fffffffffffffffffffffffffffffffffffffffffffffffffffffffffffffffff03821115610f6957610f68610e58565b5b828201905092915050565b6000610f7f82610c6b565b91507fffffffffffffffffffffffffffffffffffffffffffffffffffffffffffffffff821415610fb257610fb1610e58565b5b600182019050919050565b600082825260208201905092915050565b7f736c6963655f6f766572666c6f77000000000000000000000000000000000000600082015250565b6000611004600e83610fbd565b915061100f82610fce565b602082019050919050565b6000602082019050818103600083015261103381610ff7565b9050919050565b7f736c6963655f6f75744f66426f756e6473000000000000000000000000000000600082015250565b6000611070601183610fbd565b915061107b8261103a565b602082019050919050565b6000602082019050818103600083015261109f81611063565b9050919050565b7f746f55696e74385f6f75744f66426f756e647300000000000000000000000000600082015250565b60006110dc601383610fbd565b91506110e7826110a6565b602082019050919050565b6000602082019050818103600083015261110b816110cf565b905091905056fea2646970667358221220f2bc972d3dc420deb27dee0afe41b22c278e6c925d1d449c9ae0a4da5027762564736f6c63430008090033",
  "immutableReferences": {},
  "source": "// SPDX-License-Identifier: MIT\npragma solidity >=0.4.22 <0.9.0;\n\nlibrary RLPDecoder {\n\n  struct RLPItem {\n      bytes data;\n      uint length;\n  }\n\n  uint constant LIST_LENGTH = 20;\n\n  //Nested Lists are not supported. \n  function decodeList(bytes calldata input) internal pure returns (bytes[] memory) {\n\n    bytes1 firstByte = input[0];\n    bytes memory innerRemainder;\n    uint length = 0;\n    if (firstByte <= hex\"f7\") {\n      length = uint8(firstByte) - uint8(bytes1(hex\"bf\"));\n      innerRemainder = slice(input, 1, length - 1);\n    } else {\n      // a list  over 55 bytes long\n      uint llength = uint8(firstByte) - uint8(bytes1(hex\"f6\"));\n      length = toUintX(slice(input, 1, llength), 0);\n      uint totalLength = llength + length;\n      innerRemainder = slice(input, llength, totalLength - 1);\n      require(innerRemainder.length != 0);\n\n    }\n    uint listLength = 0;\n    bytes[] memory decoded;\n    uint index = 0;\n    RLPItem memory result;\n    while (innerRemainder.length > 0) {\n      if(index == decoded.length) {\n        bytes[] memory tmp = decoded;\n        listLength += LIST_LENGTH;\n        decoded = new bytes[](listLength);\n        if(tmp.length != 0) {\n          for(uint i = 0; i < tmp.length; i++ ){\n            decoded[i] = tmp[i];\n          }\n        }\n      }\n\n      result = decodeBytes(innerRemainder);\n      innerRemainder = slice(innerRemainder, result.length, innerRemainder.length - result.length - 1);\n      decoded[index] = result.data;\n      index++;\n    }\n\n    bytes[] memory decodedList = new bytes[](index);\n    for(uint i = 0; i < index; i++ ){\n        decodedList[i] = decoded[i];\n    }\n\n    return decodedList;\n\n\n  }\n\n  function decodeBytes(bytes memory input) internal pure returns (RLPItem memory item) {\n    bytes1 firstByte = input[0];\n    if (firstByte <= hex\"7f\") {\n      return RLPItem(bytes(slice(input, 0,1)), 1);\n    }\n    else if (firstByte <= hex\"b7\") {\n      uint length = uint8(firstByte) - uint8(bytes1(hex\"7f\"));\n      bytes memory data;\n      if (firstByte == hex\"80\") {\n          data = bytes(\"\");\n          item = RLPItem(data, 1);\n      }\n      else { \n          data = bytes(slice(input, 1, length - 1));\n          item = RLPItem(data, length);\n      }\n      require(length != 2 || data[0] > hex\"80\");\n      //return data;\n      return item;\n    }\n    else if (firstByte <= hex\"bf\") {\n      // string is greater than 55 bytes long. A single byte with the value (0xb7 plus the length of the length),\n      // followed by the length, followed by the string\n      uint llength = uint8(firstByte) - uint8(bytes1(hex\"b6\"));\n      require(input.length - 1 > llength);\n      uint length = toUintX(slice(input, 1, llength - 1), 0);\n      require(length > 55);\n      item = RLPItem(slice(input, llength, length + llength - 1), length + 2);\n      return item;\n    }\n\n  }\n\n  //function test(bytes calldata input) public pure returns (RLPItem memory) {\n  function test(bytes calldata input) public pure returns (uint) {\n      bytes1 firstByte = input[0];\n      uint llength = uint8(firstByte) - uint8(bytes1(hex\"b6\"));\n      return llength;\n      /*require(input.length - 1 > llength);\n      uint length = toUintX(slice(input, 1, llength - 1), 0);\n      require(length > 55);\n      item = RLPItem(slice(input, llength, length + llength - 1), length + 2);\n      return item;*/\n\n  }\n   \n  function decode(bytes calldata input) public pure returns (bytes[] memory) {\n    bytes1 firstByte = input[0];\n    if (firstByte > hex\"bf\") {\n        return decodeList(input);\n    } else  {\n        bytes[] memory data = new bytes[](1);\n        data[0] = decodeBytes(input).data;\n        return data;\n    }\n \n  }\n\n  //Temporarily the length is uint8 only.\n  function toUintX(bytes memory _bytes, uint256 _start) internal pure returns (uint) {\n      return toUint8(_bytes, _start);\n  }\n\n  function toUint8(bytes memory _bytes, uint256 _start) internal pure returns (uint8) {\n      require(_bytes.length >= _start + 1 , \"toUint8_outOfBounds\");\n      uint8 tempUint;\n\n      assembly {\n          tempUint := mload(add(add(_bytes, 0x1), _start))\n      }\n\n      return tempUint;\n  }\n\n    function slice(\n        bytes memory _bytes,\n        uint256 _start,\n        uint256 _length\n    )\n        internal\n        pure\n        returns (bytes memory)\n    {\n        require(_length + 31 >= _length, \"slice_overflow\");\n        require(_bytes.length >= _start + _length, \"slice_outOfBounds\");\n\n        bytes memory tempBytes;\n\n        assembly {\n            switch iszero(_length)\n            case 0 {\n                // Get a location of some free memory and store it in tempBytes as\n                // Solidity does for memory variables.\n                tempBytes := mload(0x40)\n\n                // The first word of the slice result is potentially a partial\n                // word read from the original array. To read it, we calculate\n                // the length of that partial word and start copying that many\n                // bytes into the array. The first word we copy will start with\n                // data we don't care about, but the last `lengthmod` bytes will\n                // land at the beginning of the contents of the new array. When\n                // we're done copying, we overwrite the full first word with\n                // the actual length of the slice.\n                let lengthmod := and(_length, 31)\n\n                // The multiplication in the next line is necessary\n                // because when slicing multiples of 32 bytes (lengthmod == 0)\n                // the following copy loop was copying the origin's length\n                // and then ending prematurely not copying everything it should.\n                let mc := add(add(tempBytes, lengthmod), mul(0x20, iszero(lengthmod)))\n                let end := add(mc, _length)\n\n                for {\n                    // The multiplication in the next line has the same exact purpose\n                    // as the one above.\n                    let cc := add(add(add(_bytes, lengthmod), mul(0x20, iszero(lengthmod))), _start)\n                } lt(mc, end) {\n                    mc := add(mc, 0x20)\n                    cc := add(cc, 0x20)\n                } {\n                    mstore(mc, mload(cc))\n                }\n\n                mstore(tempBytes, _length)\n\n                //update free-memory pointer\n                //allocating the array padded to 32 bytes like the compiler does now\n                mstore(0x40, and(add(mc, 31), not(31)))\n            }\n            //if we want a zero-length slice let's just return a zero-length array\n            default {\n                tempBytes := mload(0x40)\n                //zero out the 32 bytes slice we are about to return\n                //we need to do it because Solidity does not garbage collect\n                mstore(tempBytes, 0)\n\n                mstore(0x40, add(tempBytes, 0x20))\n            }\n        }\n\n        return tempBytes;\n    }\n\n}\n",
  "sourcePath": "/Users/yukitanaka/Documents/dev/solidity/solidity-rlp-decoder/contracts/RLPDecoder.sol",
  "compiler": {
    "name": "solc",
    "version": "0.8.9+commit.e5eed63a.Emscripten.clang"
  },
  "schemaVersion": "3.4.3",
  "updatedAt": "2021-11-03T04:04:40.782Z",
  "devdoc": {
    "kind": "dev",
    "methods": {},
    "version": 1
  },
  "userdoc": {
    "kind": "user",
    "methods": {},
    "version": 1
  }
}