{
  "contractName": "RLPDecoder",
  "abi": [
    {
      "inputs": [
        {
          "internalType": "bytes",
          "name": "input",
          "type": "bytes"
        }
      ],
      "name": "decode",
      "outputs": [
        {
          "internalType": "bytes[]",
          "name": "",
          "type": "bytes[]"
        }
      ],
      "stateMutability": "pure",
      "type": "function",
      "constant": true
    }
  ],
  "bytecode": "0x610f00610053600b82828239805160001a607314610046577f4e487b7100000000000000000000000000000000000000000000000000000000600052600060045260246000fd5b30600052607381538281f3fe73000000000000000000000000000000000000000030146080604052600436106100355760003560e01c8063e5c5e9a31461003a575b600080fd5b610054600480360381019061004f9190610a93565b61006a565b6040516100619190610c3b565b60405180910390f35b606060008383600081811061008257610081610c5d565b5b9050013560f81c60f81b90507fbf00000000000000000000000000000000000000000000000000000000000000817effffffffffffffffffffffffffffffffffffffffffffffffffffffffffffff191611156100ea576100e28484610176565b915050610170565b6000600167ffffffffffffffff81111561010757610106610c8c565b5b60405190808252806020026020018201604052801561013a57816020015b60608152602001906001900390816101255790505b5090506101478585610518565b600001518160008151811061015f5761015e610c5d565b5b602002602001018190525080925050505b92915050565b606060008383600081811061018e5761018d610c5d565b5b9050013560f81c60f81b905036600080600090507ff700000000000000000000000000000000000000000000000000000000000000847effffffffffffffffffffffffffffffffffffffffffffffffffffffffffffff19161161023e577fbf0000000000000000000000000000000000000000000000000000000000000060f81c8460f81c61021d9190610cf7565b60ff1690508686600190839261023593929190610d35565b92509250610313565b60007ff60000000000000000000000000000000000000000000000000000000000000060f81c8560f81c6102729190610cf7565b60ff1690506102d78888600190849261028d93929190610d35565b8080601f016020809104026020016040519081016040528093929190818152602001838380828437600081840152601f19601f82011690508083019250505050505050600061098c565b9150600082826102e79190610d7a565b90508888839083926102fb93929190610d35565b94509450600085859050141561031057600080fd5b50505b600060606000610321610a0a565b5b600087879050111561045c5782518214156104005760008390506014856103499190610d7a565b94508467ffffffffffffffff81111561036557610364610c8c565b5b60405190808252806020026020018201604052801561039857816020015b60608152602001906001900390816103835790505b50935060008151146103fe5760005b81518110156103fc578181815181106103c3576103c2610c5d565b5b60200260200101518582815181106103de576103dd610c5d565b5b602002602001018190525080806103f490610dd0565b9150506103a7565b505b505b61040a8787610518565b90508686826020015190809261042293929190610d35565b96509650806000015183838151811061043e5761043d610c5d565b5b6020026020010181905250818061045490610dd0565b925050610322565b60008267ffffffffffffffff81111561047857610477610c8c565b5b6040519080825280602002602001820160405280156104ab57816020015b60608152602001906001900390816104965790505b50905060005b83811015610505578481815181106104cc576104cb610c5d565b5b60200260200101518282815181106104e7576104e6610c5d565b5b602002602001018190525080806104fd90610dd0565b9150506104b1565b5080995050505050505050505092915050565b610520610a0a565b60008383600081811061053657610535610c5d565b5b9050013560f81c60f81b90507f7f00000000000000000000000000000000000000000000000000000000000000817effffffffffffffffffffffffffffffffffffffffffffffffffffffffffffff1916116105ff57604051806040016040528085856000906001926105aa93929190610d35565b8080601f016020809104026020016040519081016040528093929190818152602001838380828437600081840152601f19601f8201169050808301925050505050505081526020016001815250915050610986565b7fb700000000000000000000000000000000000000000000000000000000000000817effffffffffffffffffffffffffffffffffffffffffffffffffffffffffffff1916116107ec5760007f7f0000000000000000000000000000000000000000000000000000000000000060f81c8260f81c61067c9190610cf7565b60ff16905060607f8000000000000000000000000000000000000000000000000000000000000000837effffffffffffffffffffffffffffffffffffffffffffffffffffffffffffff191614156106fc5760405180602001604052806000815250905060405180604001604052808281526020016001815250935061076c565b8585600190849261070f93929190610d35565b8080601f016020809104026020016040519081016040528093929190818152602001838380828437600081840152601f19601f82011690508083019250505050505050905060405180604001604052808281526020018381525093505b6002821415806107db57507f8000000000000000000000000000000000000000000000000000000000000000816000815181106107ac576107ab610c5d565b5b602001015160f81c60f81b7effffffffffffffffffffffffffffffffffffffffffffffffffffffffffffff1916115b6107e457600080fd5b505050610986565b7fbf00000000000000000000000000000000000000000000000000000000000000817effffffffffffffffffffffffffffffffffffffffffffffffffffffffffffff1916116109845760007fb60000000000000000000000000000000000000000000000000000000000000060f81c8260f81c6108699190610cf7565b60ff1690508060018686905061087f9190610e19565b1161088957600080fd5b60006108eb868660019085926108a193929190610d35565b8080601f016020809104026020016040519081016040528093929190818152602001838380828437600081840152601f19601f82011690508083019250505050505050600061098c565b9050603781116108fa57600080fd5b60405180604001604052808787859086866109159190610d7a565b9261092293929190610d35565b8080601f016020809104026020016040519081016040528093929190818152602001838380828437600081840152601f19601f8201169050808301925050505050505081526020016002836109779190610d7a565b8152509350505050610986565b505b92915050565b600061099883836109a3565b60ff16905092915050565b60006001826109b29190610d7a565b835110156109f5576040517f08c379a00000000000000000000000000000000000000000000000000000000081526004016109ec90610eaa565b60405180910390fd5b60008260018501015190508091505092915050565b604051806040016040528060608152602001600081525090565b600080fd5b600080fd5b600080fd5b600080fd5b600080fd5b60008083601f840112610a5357610a52610a2e565b5b8235905067ffffffffffffffff811115610a7057610a6f610a33565b5b602083019150836001820283011115610a8c57610a8b610a38565b5b9250929050565b60008060208385031215610aaa57610aa9610a24565b5b600083013567ffffffffffffffff811115610ac857610ac7610a29565b5b610ad485828601610a3d565b92509250509250929050565b600081519050919050565b600082825260208201905092915050565b6000819050602082019050919050565b600081519050919050565b600082825260208201905092915050565b60005b83811015610b46578082015181840152602081019050610b2b565b83811115610b55576000848401525b50505050565b6000601f19601f8301169050919050565b6000610b7782610b0c565b610b818185610b17565b9350610b91818560208601610b28565b610b9a81610b5b565b840191505092915050565b6000610bb18383610b6c565b905092915050565b6000602082019050919050565b6000610bd182610ae0565b610bdb8185610aeb565b935083602082028501610bed85610afc565b8060005b85811015610c295784840389528151610c0a8582610ba5565b9450610c1583610bb9565b925060208a01995050600181019050610bf1565b50829750879550505050505092915050565b60006020820190508181036000830152610c558184610bc6565b905092915050565b7f4e487b7100000000000000000000000000000000000000000000000000000000600052603260045260246000fd5b7f4e487b7100000000000000000000000000000000000000000000000000000000600052604160045260246000fd5b600060ff82169050919050565b7f4e487b7100000000000000000000000000000000000000000000000000000000600052601160045260246000fd5b6000610d0282610cbb565b9150610d0d83610cbb565b925082821015610d2057610d1f610cc8565b5b828203905092915050565b600080fd5b600080fd5b60008085851115610d4957610d48610d2b565b5b83861115610d5a57610d59610d30565b5b6001850283019150848603905094509492505050565b6000819050919050565b6000610d8582610d70565b9150610d9083610d70565b9250827fffffffffffffffffffffffffffffffffffffffffffffffffffffffffffffffff03821115610dc557610dc4610cc8565b5b828201905092915050565b6000610ddb82610d70565b91507fffffffffffffffffffffffffffffffffffffffffffffffffffffffffffffffff821415610e0e57610e0d610cc8565b5b600182019050919050565b6000610e2482610d70565b9150610e2f83610d70565b925082821015610e4257610e41610cc8565b5b828203905092915050565b600082825260208201905092915050565b7f746f55696e74385f6f75744f66426f756e647300000000000000000000000000600082015250565b6000610e94601383610e4d565b9150610e9f82610e5e565b602082019050919050565b60006020820190508181036000830152610ec381610e87565b905091905056fea2646970667358221220c4333804faed58e834e481055818dd35c4b2cd2e957206e16d23ae8c4756d7ff64736f6c63430008090033",
  "immutableReferences": {},
  "source": "// SPDX-License-Identifier: MIT\npragma solidity >=0.4.22 <0.9.0;\n\n//contract RLPDecoder {\nlibrary RLPDecoder {\n\n  struct RLPItem {\n      bytes data;\n      uint length;\n  }\n\n  uint constant LIST_LENGTH = 20;\n\n  //Nested Lists are not supported. \n  function decodeList(bytes calldata input) internal pure returns (bytes[] memory) {\n\n    bytes1 firstByte = input[0];\n    bytes calldata innerRemainder;\n    uint length = 0;\n    if (firstByte <= hex\"f7\") {\n      length = uint8(firstByte) - uint8(bytes1(hex\"bf\"));\n      innerRemainder = input[1: length];\n    } else {\n      // a list  over 55 bytes long\n      uint llength = uint8(firstByte) - uint8(bytes1(hex\"f6\"));\n      length = toUintX(input[1:llength], 0);\n      uint totalLength = llength + length;\n      innerRemainder = input[llength: totalLength];\n      require(innerRemainder.length != 0);\n\n    }\n    uint listLength = 0;\n    bytes[] memory decoded;\n    uint index = 0;\n    RLPItem memory result;\n    while (innerRemainder.length > 0) {\n      if(index == decoded.length) {\n        bytes[] memory tmp = decoded;\n        listLength += LIST_LENGTH;\n        decoded = new bytes[](listLength);\n        if(tmp.length != 0) {\n          for(uint i = 0; i < tmp.length; i++ ){\n            decoded[i] = tmp[i];\n          }\n        }\n      }\n\n      result = decodeBytes(innerRemainder);\n      innerRemainder = innerRemainder[result.length:];\n      decoded[index] = result.data;\n      index++;\n    }\n\n    bytes[] memory decodedList = new bytes[](index);\n    for(uint i = 0; i < index; i++ ){\n        decodedList[i] = decoded[i];\n    }\n\n    return decodedList;\n\n\n  }\n\n  function decodeBytes(bytes calldata input) internal pure returns (RLPItem memory item) {\n    bytes1 firstByte = input[0];\n    if (firstByte <= hex\"7f\") {\n      return RLPItem(bytes(input[0:1]), 1);\n    }\n    else if (firstByte <= hex\"b7\") {\n      uint length = uint8(firstByte) - uint8(bytes1(hex\"7f\"));\n      bytes memory data;\n      if (firstByte == hex\"80\") {\n          data = bytes(\"\");\n          item = RLPItem(data, 1);\n      }\n      else { \n          data = bytes(input[1:length]);\n          item = RLPItem(data, length);\n      }\n      require(length != 2 || data[0] > hex\"80\");\n      //return data;\n      return item;\n    }\n    else if (firstByte <= hex\"bf\") {\n      // string is greater than 55 bytes long. A single byte with the value (0xb7 plus the length of the length),\n      // followed by the length, followed by the string\n      uint llength = uint8(firstByte) - uint8(bytes1(hex\"b6\"));\n      require(input.length - 1 > llength);\n      uint length = toUintX(input[1:llength], 0);\n      require(length > 55);\n      item = RLPItem(input[llength:length + llength], length + 2);\n      return item;\n    }\n\n  }\n   \n  function decode(bytes calldata input) public pure returns (bytes[] memory) {\n    bytes1 firstByte = input[0];\n    if (firstByte > hex\"bf\") {\n        return decodeList(input);\n    } else  {\n        bytes[] memory data = new bytes[](1);\n        data[0] = decodeBytes(input).data;\n        return data;\n    }\n \n  }\n\n  //Temporarily the length is uint8 only.\n  function toUintX(bytes memory _bytes, uint256 _start) internal pure returns (uint) {\n      return toUint8(_bytes, _start);\n  }\n\n  function toUint8(bytes memory _bytes, uint256 _start) internal pure returns (uint8) {\n      require(_bytes.length >= _start + 1 , \"toUint8_outOfBounds\");\n      uint8 tempUint;\n\n      assembly {\n          tempUint := mload(add(add(_bytes, 0x1), _start))\n      }\n\n      return tempUint;\n  }\n\n \n\n}\n",
  "sourcePath": "/Users/yukitanaka/Documents/dev/solidity/solidity-rlp-decoder/contracts/RLPDecoder.sol",
  "compiler": {
    "name": "solc",
    "version": "0.8.9+commit.e5eed63a.Emscripten.clang"
  },
  "schemaVersion": "3.4.3",
  "updatedAt": "2021-11-02T13:37:36.436Z",
  "networkType": "ethereum",
  "devdoc": {
    "kind": "dev",
    "methods": {},
    "version": 1
  },
  "userdoc": {
    "kind": "user",
    "methods": {},
    "version": 1
  }
}